{
  "_format": "hh-sol-artifact-1",
  "contractName": "DynamicNFT",
  "sourceName": "contracts/DynamicNFT.sol",
  "abi": [
    {
      "inputs": [],
      "stateMutability": "nonpayable",
      "type": "constructor"
    },
    {
      "inputs": [
        {
          "internalType": "address",
          "name": "sender",
          "type": "address"
        },
        {
          "internalType": "uint256",
          "name": "tokenId",
          "type": "uint256"
        },
        {
          "internalType": "address",
          "name": "owner",
          "type": "address"
        }
      ],
      "name": "ERC721IncorrectOwner",
      "type": "error"
    },
    {
      "inputs": [
        {
          "internalType": "address",
          "name": "operator",
          "type": "address"
        },
        {
          "internalType": "uint256",
          "name": "tokenId",
          "type": "uint256"
        }
      ],
      "name": "ERC721InsufficientApproval",
      "type": "error"
    },
    {
      "inputs": [
        {
          "internalType": "address",
          "name": "approver",
          "type": "address"
        }
      ],
      "name": "ERC721InvalidApprover",
      "type": "error"
    },
    {
      "inputs": [
        {
          "internalType": "address",
          "name": "operator",
          "type": "address"
        }
      ],
      "name": "ERC721InvalidOperator",
      "type": "error"
    },
    {
      "inputs": [
        {
          "internalType": "address",
          "name": "owner",
          "type": "address"
        }
      ],
      "name": "ERC721InvalidOwner",
      "type": "error"
    },
    {
      "inputs": [
        {
          "internalType": "address",
          "name": "receiver",
          "type": "address"
        }
      ],
      "name": "ERC721InvalidReceiver",
      "type": "error"
    },
    {
      "inputs": [
        {
          "internalType": "address",
          "name": "sender",
          "type": "address"
        }
      ],
      "name": "ERC721InvalidSender",
      "type": "error"
    },
    {
      "inputs": [
        {
          "internalType": "uint256",
          "name": "tokenId",
          "type": "uint256"
        }
      ],
      "name": "ERC721NonexistentToken",
      "type": "error"
    },
    {
      "anonymous": false,
      "inputs": [
        {
          "indexed": true,
          "internalType": "address",
          "name": "owner",
          "type": "address"
        },
        {
          "indexed": true,
          "internalType": "address",
          "name": "approved",
          "type": "address"
        },
        {
          "indexed": true,
          "internalType": "uint256",
          "name": "tokenId",
          "type": "uint256"
        }
      ],
      "name": "Approval",
      "type": "event"
    },
    {
      "anonymous": false,
      "inputs": [
        {
          "indexed": true,
          "internalType": "address",
          "name": "owner",
          "type": "address"
        },
        {
          "indexed": true,
          "internalType": "address",
          "name": "operator",
          "type": "address"
        },
        {
          "indexed": false,
          "internalType": "bool",
          "name": "approved",
          "type": "bool"
        }
      ],
      "name": "ApprovalForAll",
      "type": "event"
    },
    {
      "anonymous": false,
      "inputs": [
        {
          "indexed": true,
          "internalType": "uint256",
          "name": "tokenId",
          "type": "uint256"
        },
        {
          "indexed": false,
          "internalType": "string",
          "name": "newTokenURI",
          "type": "string"
        }
      ],
      "name": "TokenURIUpdated",
      "type": "event"
    },
    {
      "anonymous": false,
      "inputs": [
        {
          "indexed": true,
          "internalType": "address",
          "name": "from",
          "type": "address"
        },
        {
          "indexed": true,
          "internalType": "address",
          "name": "to",
          "type": "address"
        },
        {
          "indexed": true,
          "internalType": "uint256",
          "name": "tokenId",
          "type": "uint256"
        }
      ],
      "name": "Transfer",
      "type": "event"
    },
    {
      "inputs": [
        {
          "internalType": "address",
          "name": "to",
          "type": "address"
        },
        {
          "internalType": "uint256",
          "name": "tokenId",
          "type": "uint256"
        }
      ],
      "name": "approve",
      "outputs": [],
      "stateMutability": "nonpayable",
      "type": "function"
    },
    {
      "inputs": [
        {
          "internalType": "address",
          "name": "owner",
          "type": "address"
        }
      ],
      "name": "balanceOf",
      "outputs": [
        {
          "internalType": "uint256",
          "name": "",
          "type": "uint256"
        }
      ],
      "stateMutability": "view",
      "type": "function"
    },
    {
      "inputs": [
        {
          "internalType": "uint256",
          "name": "tokenId",
          "type": "uint256"
        }
      ],
      "name": "getApproved",
      "outputs": [
        {
          "internalType": "address",
          "name": "",
          "type": "address"
        }
      ],
      "stateMutability": "view",
      "type": "function"
    },
    {
      "inputs": [
        {
          "internalType": "address",
          "name": "owner",
          "type": "address"
        },
        {
          "internalType": "address",
          "name": "operator",
          "type": "address"
        }
      ],
      "name": "isApprovedForAll",
      "outputs": [
        {
          "internalType": "bool",
          "name": "",
          "type": "bool"
        }
      ],
      "stateMutability": "view",
      "type": "function"
    },
    {
      "inputs": [
        {
          "internalType": "address",
          "name": "to",
          "type": "address"
        },
        {
          "internalType": "uint256",
          "name": "tokenId",
          "type": "uint256"
        }
      ],
      "name": "mint",
      "outputs": [],
      "stateMutability": "nonpayable",
      "type": "function"
    },
    {
      "inputs": [],
      "name": "name",
      "outputs": [
        {
          "internalType": "string",
          "name": "",
          "type": "string"
        }
      ],
      "stateMutability": "view",
      "type": "function"
    },
    {
      "inputs": [
        {
          "internalType": "uint256",
          "name": "tokenId",
          "type": "uint256"
        }
      ],
      "name": "ownerOf",
      "outputs": [
        {
          "internalType": "address",
          "name": "",
          "type": "address"
        }
      ],
      "stateMutability": "view",
      "type": "function"
    },
    {
      "inputs": [
        {
          "internalType": "address",
          "name": "from",
          "type": "address"
        },
        {
          "internalType": "address",
          "name": "to",
          "type": "address"
        },
        {
          "internalType": "uint256",
          "name": "tokenId",
          "type": "uint256"
        }
      ],
      "name": "safeTransferFrom",
      "outputs": [],
      "stateMutability": "nonpayable",
      "type": "function"
    },
    {
      "inputs": [
        {
          "internalType": "address",
          "name": "from",
          "type": "address"
        },
        {
          "internalType": "address",
          "name": "to",
          "type": "address"
        },
        {
          "internalType": "uint256",
          "name": "tokenId",
          "type": "uint256"
        },
        {
          "internalType": "bytes",
          "name": "data",
          "type": "bytes"
        }
      ],
      "name": "safeTransferFrom",
      "outputs": [],
      "stateMutability": "nonpayable",
      "type": "function"
    },
    {
      "inputs": [
        {
          "internalType": "address",
          "name": "operator",
          "type": "address"
        },
        {
          "internalType": "bool",
          "name": "approved",
          "type": "bool"
        }
      ],
      "name": "setApprovalForAll",
      "outputs": [],
      "stateMutability": "nonpayable",
      "type": "function"
    },
    {
      "inputs": [
        {
          "internalType": "bytes4",
          "name": "interfaceId",
          "type": "bytes4"
        }
      ],
      "name": "supportsInterface",
      "outputs": [
        {
          "internalType": "bool",
          "name": "",
          "type": "bool"
        }
      ],
      "stateMutability": "view",
      "type": "function"
    },
    {
      "inputs": [],
      "name": "symbol",
      "outputs": [
        {
          "internalType": "string",
          "name": "",
          "type": "string"
        }
      ],
      "stateMutability": "view",
      "type": "function"
    },
    {
      "inputs": [
        {
          "internalType": "uint256",
          "name": "tokenId",
          "type": "uint256"
        }
      ],
      "name": "tokenURI",
      "outputs": [
        {
          "internalType": "string",
          "name": "",
          "type": "string"
        }
      ],
      "stateMutability": "view",
      "type": "function"
    },
    {
      "inputs": [
        {
          "internalType": "address",
          "name": "from",
          "type": "address"
        },
        {
          "internalType": "address",
          "name": "to",
          "type": "address"
        },
        {
          "internalType": "uint256",
          "name": "tokenId",
          "type": "uint256"
        }
      ],
      "name": "transferFrom",
      "outputs": [],
      "stateMutability": "nonpayable",
      "type": "function"
    },
    {
      "inputs": [
        {
          "internalType": "uint256",
          "name": "tokenId",
          "type": "uint256"
        },
        {
          "internalType": "string",
          "name": "newTokenURI",
          "type": "string"
        }
      ],
      "name": "updateTokenURI",
      "outputs": [],
      "stateMutability": "nonpayable",
      "type": "function"
    }
  ],
  "bytecode": "0x60806040523480156200001157600080fd5b506040518060400160405280600a81526020017f44796e616d69634e4654000000000000000000000000000000000000000000008152506040518060400160405280600481526020017f444e46540000000000000000000000000000000000000000000000000000000081525081600090816200008f919062000324565b508060019081620000a1919062000324565b5050506200040b565b600081519050919050565b7f4e487b7100000000000000000000000000000000000000000000000000000000600052604160045260246000fd5b7f4e487b7100000000000000000000000000000000000000000000000000000000600052602260045260246000fd5b600060028204905060018216806200012c57607f821691505b602082108103620001425762000141620000e4565b5b50919050565b60008190508160005260206000209050919050565b60006020601f8301049050919050565b600082821b905092915050565b600060088302620001ac7fffffffffffffffffffffffffffffffffffffffffffffffffffffffffffffffff826200016d565b620001b886836200016d565b95508019841693508086168417925050509392505050565b6000819050919050565b6000819050919050565b600062000205620001ff620001f984620001d0565b620001da565b620001d0565b9050919050565b6000819050919050565b6200022183620001e4565b6200023962000230826200020c565b8484546200017a565b825550505050565b600090565b6200025062000241565b6200025d81848462000216565b505050565b5b8181101562000285576200027960008262000246565b60018101905062000263565b5050565b601f821115620002d4576200029e8162000148565b620002a9846200015d565b81016020851015620002b9578190505b620002d1620002c8856200015d565b83018262000262565b50505b505050565b600082821c905092915050565b6000620002f960001984600802620002d9565b1980831691505092915050565b6000620003148383620002e6565b9150826002028217905092915050565b6200032f82620000aa565b67ffffffffffffffff8111156200034b576200034a620000b5565b5b62000357825462000113565b6200036482828562000289565b600060209050601f8311600181146200039c576000841562000387578287015190505b62000393858262000306565b86555062000403565b601f198416620003ac8662000148565b60005b82811015620003d657848901518255600182019150602085019450602081019050620003af565b86831015620003f65784890151620003f2601f891682620002e6565b8355505b6001600288020188555050505b505050505050565b612142806200041b6000396000f3fe608060405234801561001057600080fd5b50600436106100f55760003560e01c806342842e0e11610097578063a22cb46511610066578063a22cb46514610282578063b88d4fde1461029e578063c87b56dd146102ba578063e985e9c5146102ea576100f5565b806342842e0e146101e85780636352211e1461020457806370a082311461023457806395d89b4114610264576100f5565b8063095ea7b3116100d3578063095ea7b31461017857806318e97fd11461019457806323b872dd146101b057806340c10f19146101cc576100f5565b806301ffc9a7146100fa57806306fdde031461012a578063081812fc14610148575b600080fd5b610114600480360381019061010f919061157c565b61031a565b60405161012191906115c4565b60405180910390f35b6101326103fc565b60405161013f919061166f565b60405180910390f35b610162600480360381019061015d91906116c7565b61048e565b60405161016f9190611735565b60405180910390f35b610192600480360381019061018d919061177c565b6104aa565b005b6101ae60048036038101906101a991906118f1565b6104c0565b005b6101ca60048036038101906101c5919061194d565b610594565b005b6101e660048036038101906101e1919061177c565b610696565b005b61020260048036038101906101fd919061194d565b6106a4565b005b61021e600480360381019061021991906116c7565b6106c4565b60405161022b9190611735565b60405180910390f35b61024e600480360381019061024991906119a0565b6106d6565b60405161025b91906119dc565b60405180910390f35b61026c610790565b604051610279919061166f565b60405180910390f35b61029c60048036038101906102979190611a23565b610822565b005b6102b860048036038101906102b39190611b04565b610838565b005b6102d460048036038101906102cf91906116c7565b61085d565b6040516102e1919061166f565b60405180910390f35b61030460048036038101906102ff9190611b87565b610979565b60405161031191906115c4565b60405180910390f35b60007f80ac58cd000000000000000000000000000000000000000000000000000000007bffffffffffffffffffffffffffffffffffffffffffffffffffffffff1916827bffffffffffffffffffffffffffffffffffffffffffffffffffffffff191614806103e557507f5b5e139f000000000000000000000000000000000000000000000000000000007bffffffffffffffffffffffffffffffffffffffffffffffffffffffff1916827bffffffffffffffffffffffffffffffffffffffffffffffffffffffff1916145b806103f557506103f482610a0d565b5b9050919050565b60606000805461040b90611bf6565b80601f016020809104026020016040519081016040528092919081815260200182805461043790611bf6565b80156104845780601f1061045957610100808354040283529160200191610484565b820191906000526020600020905b81548152906001019060200180831161046757829003601f168201915b5050505050905090565b600061049982610a77565b506104a382610aff565b9050919050565b6104bc82826104b7610b3c565b610b44565b5050565b600073ffffffffffffffffffffffffffffffffffffffff166104e183610b56565b73ffffffffffffffffffffffffffffffffffffffff1603610537576040517f08c379a000000000000000000000000000000000000000000000000000000000815260040161052e90611c99565b60405180910390fd5b806006600084815260200190815260200160002090816105579190611e65565b50817f931f495b9a8e5d8e61946ea5d61e021f636cfe213a801f97589c18c152e408bd82604051610588919061166f565b60405180910390a25050565b600073ffffffffffffffffffffffffffffffffffffffff168273ffffffffffffffffffffffffffffffffffffffff16036106065760006040517f64a0ae920000000000000000000000000000000000000000000000000000000081526004016105fd9190611735565b60405180910390fd5b600061061a8383610615610b3c565b610b93565b90508373ffffffffffffffffffffffffffffffffffffffff168173ffffffffffffffffffffffffffffffffffffffff1614610690578382826040517f64283d7b00000000000000000000000000000000000000000000000000000000815260040161068793929190611f37565b60405180910390fd5b50505050565b6106a08282610dad565b5050565b6106bf83838360405180602001604052806000815250610838565b505050565b60006106cf82610a77565b9050919050565b60008073ffffffffffffffffffffffffffffffffffffffff168273ffffffffffffffffffffffffffffffffffffffff16036107495760006040517f89c62b640000000000000000000000000000000000000000000000000000000081526004016107409190611735565b60405180910390fd5b600360008373ffffffffffffffffffffffffffffffffffffffff1673ffffffffffffffffffffffffffffffffffffffff168152602001908152602001600020549050919050565b60606001805461079f90611bf6565b80601f01602080910402602001604051908101604052809291908181526020018280546107cb90611bf6565b80156108185780601f106107ed57610100808354040283529160200191610818565b820191906000526020600020905b8154815290600101906020018083116107fb57829003601f168201915b5050505050905090565b61083461082d610b3c565b8383610ea6565b5050565b610843848484610594565b61085761084e610b3c565b85858585611015565b50505050565b6060600073ffffffffffffffffffffffffffffffffffffffff1661088083610b56565b73ffffffffffffffffffffffffffffffffffffffff16036108d6576040517f08c379a00000000000000000000000000000000000000000000000000000000081526004016108cd90611fe0565b60405180910390fd5b6006600083815260200190815260200160002080546108f490611bf6565b80601f016020809104026020016040519081016040528092919081815260200182805461092090611bf6565b801561096d5780601f106109425761010080835404028352916020019161096d565b820191906000526020600020905b81548152906001019060200180831161095057829003601f168201915b50505050509050919050565b6000600560008473ffffffffffffffffffffffffffffffffffffffff1673ffffffffffffffffffffffffffffffffffffffff16815260200190815260200160002060008373ffffffffffffffffffffffffffffffffffffffff1673ffffffffffffffffffffffffffffffffffffffff16815260200190815260200160002060009054906101000a900460ff16905092915050565b60007f01ffc9a7000000000000000000000000000000000000000000000000000000007bffffffffffffffffffffffffffffffffffffffffffffffffffffffff1916827bffffffffffffffffffffffffffffffffffffffffffffffffffffffff1916149050919050565b600080610a8383610b56565b9050600073ffffffffffffffffffffffffffffffffffffffff168173ffffffffffffffffffffffffffffffffffffffff1603610af657826040517f7e273289000000000000000000000000000000000000000000000000000000008152600401610aed91906119dc565b60405180910390fd5b80915050919050565b60006004600083815260200190815260200160002060009054906101000a900473ffffffffffffffffffffffffffffffffffffffff169050919050565b600033905090565b610b5183838360016111c6565b505050565b60006002600083815260200190815260200160002060009054906101000a900473ffffffffffffffffffffffffffffffffffffffff169050919050565b600080610b9f84610b56565b9050600073ffffffffffffffffffffffffffffffffffffffff168373ffffffffffffffffffffffffffffffffffffffff1614610be157610be081848661138b565b5b600073ffffffffffffffffffffffffffffffffffffffff168173ffffffffffffffffffffffffffffffffffffffff1614610c7257610c236000856000806111c6565b6001600360008373ffffffffffffffffffffffffffffffffffffffff1673ffffffffffffffffffffffffffffffffffffffff168152602001908152602001600020600082825403925050819055505b600073ffffffffffffffffffffffffffffffffffffffff168573ffffffffffffffffffffffffffffffffffffffff1614610cf5576001600360008773ffffffffffffffffffffffffffffffffffffffff1673ffffffffffffffffffffffffffffffffffffffff168152602001908152602001600020600082825401925050819055505b846002600086815260200190815260200160002060006101000a81548173ffffffffffffffffffffffffffffffffffffffff021916908373ffffffffffffffffffffffffffffffffffffffff160217905550838573ffffffffffffffffffffffffffffffffffffffff168273ffffffffffffffffffffffffffffffffffffffff167fddf252ad1be2c89b69c2b068fc378daa952ba7f163c4a11628f55a4df523b3ef60405160405180910390a4809150509392505050565b600073ffffffffffffffffffffffffffffffffffffffff168273ffffffffffffffffffffffffffffffffffffffff1603610e1f5760006040517f64a0ae92000000000000000000000000000000000000000000000000000000008152600401610e169190611735565b60405180910390fd5b6000610e2d83836000610b93565b9050600073ffffffffffffffffffffffffffffffffffffffff168173ffffffffffffffffffffffffffffffffffffffff1614610ea15760006040517f73c6ac6e000000000000000000000000000000000000000000000000000000008152600401610e989190611735565b60405180910390fd5b505050565b600073ffffffffffffffffffffffffffffffffffffffff168273ffffffffffffffffffffffffffffffffffffffff1603610f1757816040517f5b08ba18000000000000000000000000000000000000000000000000000000008152600401610f0e9190611735565b60405180910390fd5b80600560008573ffffffffffffffffffffffffffffffffffffffff1673ffffffffffffffffffffffffffffffffffffffff16815260200190815260200160002060008473ffffffffffffffffffffffffffffffffffffffff1673ffffffffffffffffffffffffffffffffffffffff16815260200190815260200160002060006101000a81548160ff0219169083151502179055508173ffffffffffffffffffffffffffffffffffffffff168373ffffffffffffffffffffffffffffffffffffffff167f17307eab39ab6107e8899845ad3d59bd9653f200f220920489ca2b5937696c318360405161100891906115c4565b60405180910390a3505050565b60008373ffffffffffffffffffffffffffffffffffffffff163b11156111bf578273ffffffffffffffffffffffffffffffffffffffff1663150b7a02868685856040518563ffffffff1660e01b81526004016110749493929190612055565b6020604051808303816000875af19250505080156110b057506040513d601f19601f820116820180604052508101906110ad91906120b6565b60015b611134573d80600081146110e0576040519150601f19603f3d011682016040523d82523d6000602084013e6110e5565b606091505b50600081510361112c57836040517f64a0ae920000000000000000000000000000000000000000000000000000000081526004016111239190611735565b60405180910390fd5b805181602001fd5b63150b7a0260e01b7bffffffffffffffffffffffffffffffffffffffffffffffffffffffff1916817bffffffffffffffffffffffffffffffffffffffffffffffffffffffff1916146111bd57836040517f64a0ae920000000000000000000000000000000000000000000000000000000081526004016111b49190611735565b60405180910390fd5b505b5050505050565b80806111ff5750600073ffffffffffffffffffffffffffffffffffffffff168273ffffffffffffffffffffffffffffffffffffffff1614155b1561133357600061120f84610a77565b9050600073ffffffffffffffffffffffffffffffffffffffff168373ffffffffffffffffffffffffffffffffffffffff161415801561127a57508273ffffffffffffffffffffffffffffffffffffffff168173ffffffffffffffffffffffffffffffffffffffff1614155b801561128d575061128b8184610979565b155b156112cf57826040517fa9fbf51f0000000000000000000000000000000000000000000000000000000081526004016112c69190611735565b60405180910390fd5b811561133157838573ffffffffffffffffffffffffffffffffffffffff168273ffffffffffffffffffffffffffffffffffffffff167f8c5be1e5ebec7d5bd14f71427d1e84f3dd0314c0f7b2291e5b200ac8c7c3b92560405160405180910390a45b505b836004600085815260200190815260200160002060006101000a81548173ffffffffffffffffffffffffffffffffffffffff021916908373ffffffffffffffffffffffffffffffffffffffff16021790555050505050565b61139683838361144f565b61144a57600073ffffffffffffffffffffffffffffffffffffffff168373ffffffffffffffffffffffffffffffffffffffff160361140b57806040517f7e27328900000000000000000000000000000000000000000000000000000000815260040161140291906119dc565b60405180910390fd5b81816040517f177e802f0000000000000000000000000000000000000000000000000000000081526004016114419291906120e3565b60405180910390fd5b505050565b60008073ffffffffffffffffffffffffffffffffffffffff168373ffffffffffffffffffffffffffffffffffffffff161415801561150757508273ffffffffffffffffffffffffffffffffffffffff168473ffffffffffffffffffffffffffffffffffffffff1614806114c857506114c78484610979565b5b8061150657508273ffffffffffffffffffffffffffffffffffffffff166114ee83610aff565b73ffffffffffffffffffffffffffffffffffffffff16145b5b90509392505050565b6000604051905090565b600080fd5b600080fd5b60007fffffffff0000000000000000000000000000000000000000000000000000000082169050919050565b61155981611524565b811461156457600080fd5b50565b60008135905061157681611550565b92915050565b6000602082840312156115925761159161151a565b5b60006115a084828501611567565b91505092915050565b60008115159050919050565b6115be816115a9565b82525050565b60006020820190506115d960008301846115b5565b92915050565b600081519050919050565b600082825260208201905092915050565b60005b838110156116195780820151818401526020810190506115fe565b60008484015250505050565b6000601f19601f8301169050919050565b6000611641826115df565b61164b81856115ea565b935061165b8185602086016115fb565b61166481611625565b840191505092915050565b600060208201905081810360008301526116898184611636565b905092915050565b6000819050919050565b6116a481611691565b81146116af57600080fd5b50565b6000813590506116c18161169b565b92915050565b6000602082840312156116dd576116dc61151a565b5b60006116eb848285016116b2565b91505092915050565b600073ffffffffffffffffffffffffffffffffffffffff82169050919050565b600061171f826116f4565b9050919050565b61172f81611714565b82525050565b600060208201905061174a6000830184611726565b92915050565b61175981611714565b811461176457600080fd5b50565b60008135905061177681611750565b92915050565b600080604083850312156117935761179261151a565b5b60006117a185828601611767565b92505060206117b2858286016116b2565b9150509250929050565b600080fd5b600080fd5b7f4e487b7100000000000000000000000000000000000000000000000000000000600052604160045260246000fd5b6117fe82611625565b810181811067ffffffffffffffff8211171561181d5761181c6117c6565b5b80604052505050565b6000611830611510565b905061183c82826117f5565b919050565b600067ffffffffffffffff82111561185c5761185b6117c6565b5b61186582611625565b9050602081019050919050565b82818337600083830152505050565b600061189461188f84611841565b611826565b9050828152602081018484840111156118b0576118af6117c1565b5b6118bb848285611872565b509392505050565b600082601f8301126118d8576118d76117bc565b5b81356118e8848260208601611881565b91505092915050565b600080604083850312156119085761190761151a565b5b6000611916858286016116b2565b925050602083013567ffffffffffffffff8111156119375761193661151f565b5b611943858286016118c3565b9150509250929050565b6000806000606084860312156119665761196561151a565b5b600061197486828701611767565b935050602061198586828701611767565b9250506040611996868287016116b2565b9150509250925092565b6000602082840312156119b6576119b561151a565b5b60006119c484828501611767565b91505092915050565b6119d681611691565b82525050565b60006020820190506119f160008301846119cd565b92915050565b611a00816115a9565b8114611a0b57600080fd5b50565b600081359050611a1d816119f7565b92915050565b60008060408385031215611a3a57611a3961151a565b5b6000611a4885828601611767565b9250506020611a5985828601611a0e565b9150509250929050565b600067ffffffffffffffff821115611a7e57611a7d6117c6565b5b611a8782611625565b9050602081019050919050565b6000611aa7611aa284611a63565b611826565b905082815260208101848484011115611ac357611ac26117c1565b5b611ace848285611872565b509392505050565b600082601f830112611aeb57611aea6117bc565b5b8135611afb848260208601611a94565b91505092915050565b60008060008060808587031215611b1e57611b1d61151a565b5b6000611b2c87828801611767565b9450506020611b3d87828801611767565b9350506040611b4e878288016116b2565b925050606085013567ffffffffffffffff811115611b6f57611b6e61151f565b5b611b7b87828801611ad6565b91505092959194509250565b60008060408385031215611b9e57611b9d61151a565b5b6000611bac85828601611767565b9250506020611bbd85828601611767565b9150509250929050565b7f4e487b7100000000000000000000000000000000000000000000000000000000600052602260045260246000fd5b60006002820490506001821680611c0e57607f821691505b602082108103611c2157611c20611bc7565b5b50919050565b7f44796e616d69634e46543a205552492075706461746520666f72206e6f6e657860008201527f697374656e7420746f6b656e0000000000000000000000000000000000000000602082015250565b6000611c83602c836115ea565b9150611c8e82611c27565b604082019050919050565b60006020820190508181036000830152611cb281611c76565b9050919050565b60008190508160005260206000209050919050565b60006020601f8301049050919050565b600082821b905092915050565b600060088302611d1b7fffffffffffffffffffffffffffffffffffffffffffffffffffffffffffffffff82611cde565b611d258683611cde565b95508019841693508086168417925050509392505050565b6000819050919050565b6000611d62611d5d611d5884611691565b611d3d565b611691565b9050919050565b6000819050919050565b611d7c83611d47565b611d90611d8882611d69565b848454611ceb565b825550505050565b600090565b611da5611d98565b611db0818484611d73565b505050565b5b81811015611dd457611dc9600082611d9d565b600181019050611db6565b5050565b601f821115611e1957611dea81611cb9565b611df384611cce565b81016020851015611e02578190505b611e16611e0e85611cce565b830182611db5565b50505b505050565b600082821c905092915050565b6000611e3c60001984600802611e1e565b1980831691505092915050565b6000611e558383611e2b565b9150826002028217905092915050565b611e6e826115df565b67ffffffffffffffff811115611e8757611e866117c6565b5b611e918254611bf6565b611e9c828285611dd8565b600060209050601f831160018114611ecf5760008415611ebd578287015190505b611ec78582611e49565b865550611f2f565b601f198416611edd86611cb9565b60005b82811015611f0557848901518255600182019150602085019450602081019050611ee0565b86831015611f225784890151611f1e601f891682611e2b565b8355505b6001600288020188555050505b505050505050565b6000606082019050611f4c6000830186611726565b611f5960208301856119cd565b611f666040830184611726565b949350505050565b7f44796e616d69634e46543a2055524920717565727920666f72206e6f6e65786960008201527f7374656e7420746f6b656e000000000000000000000000000000000000000000602082015250565b6000611fca602b836115ea565b9150611fd582611f6e565b604082019050919050565b60006020820190508181036000830152611ff981611fbd565b9050919050565b600081519050919050565b600082825260208201905092915050565b600061202782612000565b612031818561200b565b93506120418185602086016115fb565b61204a81611625565b840191505092915050565b600060808201905061206a6000830187611726565b6120776020830186611726565b61208460408301856119cd565b8181036060830152612096818461201c565b905095945050505050565b6000815190506120b081611550565b92915050565b6000602082840312156120cc576120cb61151a565b5b60006120da848285016120a1565b91505092915050565b60006040820190506120f86000830185611726565b61210560208301846119cd565b939250505056fea264697066735822122086d3bba7341e7f1b4aebd23dd88adbe9c7aeabd0c3cd290241b99fdb09e8cde264736f6c63430008140033",
  "linkReferences": {},
  "deployedLinkReferences": {}
}